{
  "contractName": "Auction",
  "abi": [
    {
      "constant": false,
      "inputs": [],
      "name": "register",
      "outputs": [],
      "payable": true,
      "stateMutability": "payable",
      "type": "function"
    },
    {
      "constant": true,
      "inputs": [],
      "name": "beneficiary",
      "outputs": [
        {
          "name": "",
          "type": "address"
        }
      ],
      "payable": false,
      "stateMutability": "view",
      "type": "function"
    },
    {
      "constant": false,
      "inputs": [
        {
          "name": "_itemId",
          "type": "uint256"
        },
        {
          "name": "_count",
          "type": "uint256"
        }
      ],
      "name": "bid",
      "outputs": [],
      "payable": true,
      "stateMutability": "payable",
      "type": "function"
    },
    {
      "constant": true,
      "inputs": [
        {
          "name": "id",
          "type": "uint256"
        }
      ],
      "name": "getPersonDetails",
      "outputs": [
        {
          "name": "",
          "type": "uint256"
        },
        {
          "name": "",
          "type": "uint256"
        },
        {
          "name": "",
          "type": "address"
        }
      ],
      "payable": false,
      "stateMutability": "view",
      "type": "function"
    },
    {
      "constant": false,
      "inputs": [],
      "name": "revealWinners",
      "outputs": [],
      "payable": false,
      "stateMutability": "nonpayable",
      "type": "function"
    },
    {
      "constant": true,
      "inputs": [
        {
          "name": "",
          "type": "uint256"
        }
      ],
      "name": "winners",
      "outputs": [
        {
          "name": "",
          "type": "address"
        }
      ],
      "payable": false,
      "stateMutability": "view",
      "type": "function"
    },
    {
      "constant": true,
      "inputs": [
        {
          "name": "",
          "type": "uint256"
        }
      ],
      "name": "items",
      "outputs": [
        {
          "name": "itemId",
          "type": "uint256"
        }
      ],
      "payable": false,
      "stateMutability": "view",
      "type": "function"
    },
    {
      "inputs": [],
      "payable": true,
      "stateMutability": "payable",
      "type": "constructor"
    }
  ],
  "bytecode": "0x60606040526000601755610011610154565b33601660006101000a81548173ffffffffffffffffffffffffffffffffffffffff021916908373ffffffffffffffffffffffffffffffffffffffff16021790555060408051908101604052806000815260200182815250600d600060038110151561007857fe5b600202016000820151816000015560208201518160010190805190602001906100a2929190610168565b5090505060408051908101604052806001815260200182815250600d60016003811015156100cc57fe5b600202016000820151816000015560208201518160010190805190602001906100f6929190610168565b5090505060408051908101604052806002815260200182815250600d600260038110151561012057fe5b6002020160008201518160000155602082015181600101908051906020019061014a929190610168565b50905050506101da565b602060405190810160405280600081525090565b8280548282559060005260206000209081019282156101a4579160200282015b828111156101a3578251825591602001919060010190610188565b5b5090506101b191906101b5565b5090565b6101d791905b808211156101d35760008160009055506001016101bb565b5090565b90565b6108bf806101e96000396000f300606060405260043610610083576000357c0100000000000000000000000000000000000000000000000000000000900463ffffffff1680631aa3a0081461008857806338af3eed14610092578063598647f8146100e75780636098170514610108578063952587d614610179578063a2fb11751461018e578063bfb231d2146101f1575b600080fd5b610090610228565b005b341561009d57600080fd5b6100a56103a1565b604051808273ffffffffffffffffffffffffffffffffffffffff1673ffffffffffffffffffffffffffffffffffffffff16815260200191505060405180910390f35b61010660048080359060200190919080359060200190919050506103c7565b005b341561011357600080fd5b61012960048080359060200190919050506105fe565b604051808481526020018381526020018273ffffffffffffffffffffffffffffffffffffffff1673ffffffffffffffffffffffffffffffffffffffff168152602001935050505060405180910390f35b341561018457600080fd5b61018c610675565b005b341561019957600080fd5b6101af60048080359060200190919050506107ea565b604051808273ffffffffffffffffffffffffffffffffffffffff1673ffffffffffffffffffffffffffffffffffffffff16815260200191505060405180910390f35b34156101fc57600080fd5b610212600480803590602001909190505061081f565b6040518082815260200191505060405180910390f35b601754600160175460048110151561023c57fe5b600302016001018190555033600160175460048110151561025957fe5b6003020160020160006101000a81548173ffffffffffffffffffffffffffffffffffffffff021916908373ffffffffffffffffffffffffffffffffffffffff160217905550600560016017546004811015156102b157fe5b600302016000018190555060016017546004811015156102cd57fe5b600302016000803373ffffffffffffffffffffffffffffffffffffffff1673ffffffffffffffffffffffffffffffffffffffff16815260200190815260200160002060008201548160000155600182015481600101556002820160009054906101000a900473ffffffffffffffffffffffffffffffffffffffff168160020160006101000a81548173ffffffffffffffffffffffffffffffffffffffff021916908373ffffffffffffffffffffffffffffffffffffffff160217905550905050601760008154809291906001019190505550565b601660009054906101000a900473ffffffffffffffffffffffffffffffffffffffff1681565b6000806000836000803373ffffffffffffffffffffffffffffffffffffffff1673ffffffffffffffffffffffffffffffffffffffff16815260200190815260200160002060000154108061045c575060008060003373ffffffffffffffffffffffffffffffffffffffff1673ffffffffffffffffffffffffffffffffffffffff16815260200190815260200160002060000154145b1561046657600080fd5b600285111561047457600080fd5b836000803373ffffffffffffffffffffffffffffffffffffffff1673ffffffffffffffffffffffffffffffffffffffff16815260200190815260200160002060000154039250826000803373ffffffffffffffffffffffffffffffffffffffff1673ffffffffffffffffffffffffffffffffffffffff168152602001908152602001600020600001819055508260016000803373ffffffffffffffffffffffffffffffffffffffff1673ffffffffffffffffffffffffffffffffffffffff1681526020019081526020016000206001015460048110151561055157fe5b6003020160000181905550600d8560038110151561056b57fe5b600202019150600090505b838110156105f7578160010180548060010182816105949190610842565b916000526020600020900160008060003373ffffffffffffffffffffffffffffffffffffffff1673ffffffffffffffffffffffffffffffffffffffff16815260200190815260200160002060010154909190915055508080600101915050610576565b5050505050565b600080600060018460048110151561061257fe5b600302016000015460018560048110151561062957fe5b600302016001015460018660048110151561064057fe5b6003020160020160009054906101000a900473ffffffffffffffffffffffffffffffffffffffff169250925092509193909250565b6000806000803373ffffffffffffffffffffffffffffffffffffffff16601660009054906101000a900473ffffffffffffffffffffffffffffffffffffffff1673ffffffffffffffffffffffffffffffffffffffff161415156106d757600080fd5b600093505b60038410156107e457600d846003811015156106f457fe5b600202019250600083600101805490501415156107d757826001018054905083600101805490504381151561072557fe5b0481151561072f57fe5b069150826001018281548110151561074357fe5b906000526020600020900154905060018160048110151561076057fe5b6003020160020160009054906101000a900473ffffffffffffffffffffffffffffffffffffffff1660138560038110151561079757fe5b0160006101000a81548173ffffffffffffffffffffffffffffffffffffffff021916908373ffffffffffffffffffffffffffffffffffffffff1602179055505b83806001019450506106dc565b50505050565b6013816003811015156107f957fe5b016000915054906101000a900473ffffffffffffffffffffffffffffffffffffffff1681565b600d8160038110151561082e57fe5b600202016000915090508060000154905081565b81548183558181151161086957818360005260206000209182019101610868919061086e565b5b505050565b61089091905b8082111561088c576000816000905550600101610874565b5090565b905600a165627a7a723058209396312819ea64ccc7cc61aeeb91153f6bc6d7985e14cb2d6ff3dfd7a4038ade0029",
  "source": "pragma solidity ^0.4.17;\n\ncontract Auction {\n    \n    // Data\n    //Structure to hold details of the item\n    struct Item {\n        uint itemId; // id of the item\n        uint[] itemTokens;  //tokens bid in favor of the item\n       \n    }\n    \n   //Structure to hold the details of a persons\n    struct Person {\n        uint remainingTokens; // tokens remaining with bidder\n        uint personId; // it serves as tokenId as well\n        address addr;//address of the bidder\n    }\n \n    mapping(address => Person) tokenDetails; //address to person \n    Person [4] bidders;//Array containing 4 person objects\n    \n    Item [3] public items;//Array containing 3 item objects\n    address[3] public winners;//Array for address of winners\n    address public beneficiary;//owner of the smart contract\n    \n    uint bidderCount=0;//counter\n    \n    //functions\n\n    function Auction() public payable{    //constructor\n                \n\tbeneficiary = msg.sender;\n        uint[] memory emptyArray;\n        items[0] = Item({itemId:0,itemTokens:emptyArray});\n        items[1] = Item({itemId:1,itemTokens:emptyArray});\n        items[2] = Item({itemId:2,itemTokens:emptyArray});\n    }\n    \n\n    function register() public payable{\n        \n        bidders[bidderCount].personId = bidderCount;\n        bidders[bidderCount].addr = msg.sender;\n        bidders[bidderCount].remainingTokens = 5; // only 5 tokens\n        tokenDetails[msg.sender]=bidders[bidderCount];\n        bidderCount++;\n    }\n    \n    function bid(uint _itemId, uint _count) public payable{\n\t\n        if (tokenDetails[msg.sender].remainingTokens < _count || tokenDetails[msg.sender].remainingTokens == 0) {\n           revert();\n\t}\n\n\tif (_itemId > 2) { revert(); }\n\n\tuint balance = tokenDetails[msg.sender].remainingTokens - _count;\n        tokenDetails[msg.sender].remainingTokens=balance;\n        bidders[tokenDetails[msg.sender].personId].remainingTokens=balance;//updating the same balance in bidders map.\n        \n        Item storage bidItem = items[_itemId];\n        for(uint i=0; i<_count;i++) {\n            bidItem.itemTokens.push(tokenDetails[msg.sender].personId);    \n        }\n    }\n    \n\n    modifier onlyOwner {\n\trequire(beneficiary==msg.sender);\n\t_;\n    }\n    \n    \n    function revealWinners() public onlyOwner{\n        \n\n        for (uint id = 0; id < 3; id++) {\n            Item storage currentItem=items[id];\n            if(currentItem.itemTokens.length != 0){\n            // generate random# from block number \n            uint randomIndex = (block.number / currentItem.itemTokens.length)% currentItem.itemTokens.length; \n            // Obtain the winning tokenId\n\n            uint winnerId = currentItem.itemTokens[randomIndex];\n                \n\t    winners[id] = bidders[winnerId].addr;\n                \n            }\n        }\n    } \n\n  //Miscellaneous methods: Below methods are used to assist Grading. Please DONOT CHANGE THEM.\n    function getPersonDetails(uint id) public constant returns(uint,uint,address){\n        return (bidders[id].remainingTokens,bidders[id].personId,bidders[id].addr);\n    }\n\n}\n",
  "sourcePath": "/home/ubuntu/coursera/dapps/Auction/Auction/contracts/Auction.sol",
  "compiler": {
    "name": "solc",
    "version": "0.4.18+commit.9cf6e910.Emscripten.clang"
  },
  "schemaVersion": "1.0.1",
  "updatedAt": "2020-06-06T20:57:49.835Z"
}